S0180000546F462D43414E2D4669726D776172652E737265639A
S11300000C945B000C9483000C9483000C94830088
S11300100C9483000C9483000C9483000C94830050
S11300200C9483000C9483000C9483000C94830040
S11300300C9483000C9483000C9483000C94830030
S11300400C9483000C9483000C9483000C94830020
S11300500C9483000C9483000C9483000C94830010
S11300600C9483000C9483000C9483000C94830000
S11300700C9483000C9483000C9483000C948300F0
S11300800C9483000C9483000C9483000C948300E0
S11300900C9483000C9483000C9483000C948300D0
S11300A00C9483000C9483000C9483000C948300C0
S11300B00C948300E10411241FBECFEFD8E0DEBF0F
S11300C0CDBF14E0A0E0B1E0E0ECFCE402C0059098
S11300D00D92AA3EB107D9F726E0AAEEB4E001C01A
S11300E01D92AB3BB207E1F710E0CBE5D0E004C0D2
S11300F02197FE010E941323CA35D107C9F70E9434
S1130100B3030C945E260C9400005F985D985E988F
S113011008951092BC0094EA9093BC009091BC00A6
S113012097FFFCCF9091B900987F983011F081E04F
S113013008958093BB0084E88093BC008091BC0048
S113014087FFFCCF8091B900887F883111F080341B
S113015071F780E008958093BB0084E88093BC002D
S11301608091BC0087FFFCCF9091B900987F81E01B
S1130170983209F480E0089584EC8093BC00809167
S1130180BC0087FFFCCF8091BB00089584E9809375
S1130190BC000895EF92FF920F931F93CF93DF93C8
S11301A0CDB7DEB727970FB6F894DEBF0FBECDBF2D
S11301B08C017C018AEBE81A8EEFF80AD701ED91E5
S11301C0FC911197EF5BFE4F89E28083ED91FC91E6
S11301D01197EE5BFE4F81E08083ED91FC91ED5B26
S11301E0FE4F80E991E091838083C80101960E94CB
S11301F0A208F8018083811107C0D7018D919C91D9
S11302000E943D0DF8018083D8018C9181110DC0AD
S1130210AE01495F5F4FBE016F5F7F4FF701808181
S113022091810E94C60ED8018C93F80180818111BE
S11302300DC0AE014B5F5F4FBE016A5F7F4FD701B8
S11302408D919C910E94BA09F8018083D8018C9108
S113025081110AC041E060E070E0F7018081918182
S11302600E94A706D8018C93F801808181110AC0ED
S113027041E061E070E0D7018D919C910E94A70656
S1130280F8018083D8018C9181110AC041E063E0B8
S113029070E0F701808191810E94A706D8018C93B8
S11302A0F801808181110DC024ED38E040E050E078
S11302B063E070E0D7018D919C910E941C07F801C6
S11302C0808381E0D8019C91911180E027960FB63C
S11302D0F894DEBF0FBECDBFDF91CF911F910F9178
S11302E0FF90EF9008958EBD0DB407FEFDCF8EB53F
S11302F00895CF93DF93D82FC62F2A9882E00E94C7
S113030073018D2F0E9473018C2F0E9473012A9A0E
S1130310DF91CF910895CF93C82F2A9883E00E944C
S113032073018C2F0E9473018FEF0E9473012A9A2C
S1130330CF9108951F93CF93DF93182FD62FC42FF7
S11303402A9885E00E947301812F0E9473018D2FEA
S11303500E9473018C2F0E9473012A9ADF91CF911E
S11303601F9108952A980E9473018FEF0E947301D0
S11303702A9A0895CF93DF93EC012A9A229A2D9812
S11303802B982C98259A239A249852985A9A81E566
S11303908CBD1DBC2A9880EC0E9473012A9A87ECBC
S11303A090E00197F1F700C000002A9882E00E94D3
S11303B0730188E20E94730184E00E94730189E85A
S11303C00E94730180E00E94730183E00E94730124
S11303D02A9A8AE20E948B01811132C060E08AE28B
S11303E00E94790160E08CE00E94790160E08DE078
S11303F00E94790164E080E60E94790160E080E770
S11304000E947901BE0183E0769567958A95E1F7AC
S113041080E00E9479016C2F6295660F607E81E016
S11304200E9479016FEF80E20E94790160EE81E21F
S11304300E94790160E08FE00E94790181E001C0AF
S113044080E0DF91CF910895DF92EF92FF920F93B6
S11304501F93CF93DF931F92CDB7DEB77C0180EA61
S11304600E94B2018983898182FF08C0898184FF47
S113047007C0898186FD4DC014E003C010E001C0AF
S113048012E02A98812F80640E947301F701808111
S1130490918123E0969587952A95E1F70E9473014F
S11304A0F70180818295880F807E0E94730180E02D
S11304B00E94730180E00E947301F7018281082F7A
S11304C006950F7080FF05C0802F80640E94730121
S11304D010C0802F0E947301F3E0EF0EF11CD12CA9
S11304E0D01639F0F70181917F010E947301D394F2
S11304F0F7CF2A9AF2E0FA95F1F700C02A98111181
S113050001C011E0812F80680E9473012A9A812F13
S113051001C080E00F90DF91CF911F910F91FF9068
S1130520EF90DF9008958230910549F08330910572
S113053051F0019761F45D985E985F9A08955F9811
S11305405E985D9A08955F985D985E9A08950C94FC
S1130550850001979C0140E050E060E271EA87E089
S113056090E00E94F422832F99278093C500209362
S1130570C400E1ECF0E0808188698083E2ECF0E083
S113058080818E60808308959091C00095FFFCCF98
S11305908093C60008950E94C40280E090E008950C
S11305A0CF93DF93EC018991882319F00E94C40250
S11305B0FACFDF91CF910895EF92FF920F931F939B
S11305C0CF93DF93EC011A8116951F7089818F9365
S11305D088818F938BEB93E09F938F930E943A23B0
S11305E01F921F938BEC93E09F938F930E943A2367
S11305F08A81879588278795880F880B282F082E4E
S1130600000C330B3F938F9388ED93E09F938F936C
S11306100E943A238A812DB73EB7245F3F4F0FB61D
S1130620F8943EBF0FBE2DBF80FD27C085EE93E03A
S11306309F938F930E943A2323960F900F9000E08C
S11306408DEEE82E83E0F82E011769F089911F9250
S11306508F93FF92EF920E943A230F5F0F900F90B7
S11306600F900F90F1CF85EF93E0DF91CF911F9121
S11306700F91FF90EF900C945023DF91CF911F9135
S11306800F91FF90EF900895CF93DF93CDB7DEB72E
S11306902B970FB6F894DEBF0FBECDBFAC0180918F
S11306A0AD069091AE069A8389839B81262F2F7085
S11306B0220F907E922B9B83DE011496FA01CF01C8
S11306C0841B950B861797071CF481918D93F7CFA4
S11306D0CE0101960E942402811111C087EF93E09C
S11306E00E94D002CE0101960E94DC0282E090E0DA
S11306F09093B4068093B3068FEF9FEF02C080E01F
S113070090E02B960FB6F894DEBF0FBECDBFDF91FD
S1130710CF910895CF93DF9300D0CDB7DEB791E0AA
S113072099838A8362E070E0CE0101960E944403BB
S11307300F900F90DF91CF910895CF93DF9300D066
S11307401F92CDB7DEB722E029839A838B8363E0BF
S113075070E0CE0101960E9444030F900F900F9019
S1130760DF91CF910895CF93DF93CDB7DEB769972B
S11307700FB6F894DEBF0FBECDBF8BEC92E0909322
S1130780F3048093F2041092F5041092F40482E0CE
S11307908093ED041092F7041092F6048AEE94E02C
S11307A09093B8068093B706569A559A579A81E063
S11307B090E00E94930280E895E20E94A9022FEF44
S11307C084E39CE0215080409040E1F700C00000A9
S11307D080E090E00E9411268C0180529640803E79
S11307E09940C0F41F930F938BE194E09F938F93F0
S11307F00E943A23C801A0E0B0E08093AD06909334
S1130800AE06A093AF06B093B0060F900F900F9072
S11308100F9012C01F921F9286E08F9380E28F93F5
S113082080E494E09F938F930E943A230F900F905B
S11308300F900F900F900F908091AD069091AE069F
S11308400E94BA0181110DC084E794E00E94D00295
S113085083E090E09093B4068093B3060E948A03E9
S1130860FFCF86E994E00E94D00280E28093B80032
S113087040E069E289EF94E00E94CA0081110DC052
S11308808AEA94E00E94D00283E090E09093B40658
S11308908093B3060E948A03FFCF8FEF94E32CE08A
S11308A0815090402040E1F700C0000040E060EE3D
S11308B08FE00E949A01CC24C394D12C94ECE92EAD
S11308C094E0F92E8091B3069091B4060397B9F1A0
S11308D0BE016F5F7F4F80913F06909140060E945A
S11308E06E0C898D843039F109851A850F3F9FE19B
S11308F0190708F51F928F931F930F93FF92EF929E
S11309000E943A230F900F900F900F900F900F902A
S11309108091B1069091B2060817190739F0C80101
S11309200E949D031093B2060093B1061092B40680
S11309301092B30604C0D092B406C092B30680915C
S1130940B3069091B4062091000130910101821701
S1130950930751F00E948A038091B3069091B406E4
S113096090930101809300018091B3069091B406A5
S1130970009719F482E090E00EC08130910519F4DB
S113098083E090E008C0029721F48091F80483305A
S113099028F481E090E00E94930202C00E94850046
S11309A08091F8048F5F853018F48093F80402C0B6
S11309B01092F8048FE295E70197F1F700C0000068
S11309C081CFE9EFF4E084EB91E0DF019C011D921B
S11309D021503040E1F78AEF94E0909340068093F1
S11309E03F0681E496E09093490680934806089573
S11309F0CF93DF93EB01AB0169E00E947021811179
S1130A0003C0988191709883DF91CF9108950C94DD
S1130A10F01B0C94CA1BDF92EF92FF920F931F936B
S1130A20CF93DF931F92CDB7DEB77C01162FD42E60
S1130A301982AE014F5F5F4F61E00E947021082F61
S1130A40811150C0898191E0D9121AC0123091F0FD
S1130A5038F4112361F0113069F5182F18622CC095
S1130A60133059F0143031F5182F106825C0182FA1
S1130A70106122C0182F14601FC0182F10641CC0EE
S1130A80123091F038F4112361F0113099F4182FD9
S1130A90177D12C0133059F0143061F4182F1F77EA
S1130AA00BC0182F1F7E08C0182F1B7F05C0182FDE
S1130AB01F7B02C00CEF16C08117A1F0412F61E02B
S1130AC0C7010E942B21082F81110CC0F701E35E9E
S1130AD0FE4F1083F7014289538964897589C701E0
S1130AE00E940705802F0F90DF91CF911F910F91E6
S1130AF0FF90EF90DF9008950F931F93CF93DF93B0
S1130B001F92CDB7DEB78B011982AE014F5F5F4FE5
S1130B1061E00E947021811116C0998194FB222703
S1130B2020F9F801208393FB222720F9228392FBEA
S1130B30222720F9218396FB222720F92383991F5A
S1130B409927991F94830F90DF91CF911F910F9153
S1130B5008953F924F925F926F927F928F929F92ED
S1130B60AF92BF92CF92DF92EF92FF920F931F93B7
S1130B70CF93DF9300D000D0CDB7DEB78A01AE01AA
S1130B804F5F5F4F0E94191A382E811136C0498079
S1130B905A806B807C8088EE882E83E0982EA12C6E
S1130BA0B12CC301B201A50194010E94D2226901B2
S1130BB07A01A8EEB3E00E942823A3019201261B28
S1130BC0370B480B590BAFEFBFEF0E9428236C5033
S1130BD07E4F8F4F9F4FA50194010E94D222760130
S1130BE0DD24CC24DA01C9018C0D9D1DAE1DBF1D71
S1130BF0F80180839183A283B383832D0F900F9098
S1130C000F900F90DF91CF911F910F91FF90EF9074
S1130C10DF90CF90BF90AF909F908F907F906F9018
S1130C205F904F903F900895CF92DF92EF92FF92A2
S1130C301F93CF93DF9300D000D000D0CDB7DEB7A1
S1130C407C016B01AE014B5F5F4F68EF0E947C211A
S1130C50182F811126C0AE014F5F5F4F64E0C701BA
S1130C600E948821182F81111CC02D813E812115DD
S1130C70310569F040E050E069817A818B819C8183
S1130C800E94D222F6012083318342835383F601EA
S1130C9080819181A281B381F701868B978BA08F8C
S1130CA0B18F812F26960FB6F894DEBF0FBECDBF4D
S1130CB0DF91CF911F91FF90EF90DF90CF90089537
S1130CC0FC01828DFB01808380E00895EF92FF9206
S1130CD00F931F93CF93DF9300D0CDB7DEB77C0182
S1130CE08B01AE014F5F5F4F60E20E947C21811156
S1130CF025C049815A814115510569F4F701458D93
S1130D00568D678D70A1F80140835183628373838C
S1130D10F701128E13C093E0440F551F9A95E1F723
S1130D2060E070E0F8014083518362837383F701CC
S1130D30458F568F678F70A391E0928F0F900F901D
S1130D40DF91CF911F910F91FF90EF900895FF9243
S1130D500F931F93CF93DF938C01FB01F42E663026
S1130D60710590F4442391F0DB01AA0FBB1FAA0F75
S1130D70BB1FA00FB11FD1964D915D916D917C91D8
S1130D80D49720E091E007C08CEF41C021E090E0CF
S1130D9040E050E0BA01EF01E330F10519F4F80145
S1130DA090A72CC0E430F10578F4E130F105C1F4EA
S1130DB089E076956795579547958A95D1F764E4C8
S1130DC0C8010E94372109C0E430F10589F4220FDB
S1130DD04EEF60E6C8010E944321811118C00EC085
S1130DE0329719F0F80195A309C0F80197A306C03A
S1130DF03597C1F72295207F4FEEEBCFC00FD11F5F
S1130E00F11002C01DA202C081E08DA380E0DF9139
S1130E10CF911F910F91FF9008956630710520F0D6
S1130E20FA0110828CEF0895FC01E60FF71F85A1EB
S1130E30FA01808380E00895CF92DF92EF92FF92CF
S1130E400F931F93CF93DF938C01EB0169017A0118
S1130E50FC01E60FF71F85A181110CC0CC0FDD1F2B
S1130E60CC0FDD1FC00FD11FC9AADAAAEBAAFCAAB6
S1130E7080E03FC06230710541F180F42097F9F0C1
S1130E8061307105A9F5BA01A90199E076956795D4
S1130E90579547959A95D1F764E424C0633071055A
S1130EA0D1F06630710520F5BA01A90189E0769583
S1130EB06795579547958A95D1F764E613C0F8016D
S1130EC021AB32AB43AB54ABC9CFF80121AF32AF46
S1130ED043AF54AFC3CFF801FD96208331834283DF
S1130EE05383BCCFC8010E943721811102C0B6CF01
S1130EF08CEFDF91CF911F910F91FF90EF90DF90D6
S1130F00CF900895EF92FF920F931F93CF93DF93A7
S1130F1000D0CDB7DEB78C017A0162307105A1F142
S1130F2038F46115710559F06130710571F056C0DE
S1130F306330710579F16630710598F14FC0FC0199
S1130F4081A992A9A3A9B4A94BC0AE014F5F5F4F79
S1130F5064E40E947C21811149C0998120E030E041
S1130F60392F330FA90160E070E0232B51F5F8010C
S1130F7045A956A967A970ADF701408351836283DF
S1130F807383F80116A232C0FC0181AD92ADA3AD0A
S1130F90B4AD26C0FC01FD9680819181A281B3810C
S1130FA01FC0AE014F5F5F4F64E60E947C21811138
S1130FB01DC0298180E090E0922F990FA0E0B0E05D
S1130FC00FC0F7014083518362837383F80145ABFB
S1130FD056AB67AB70AF91E096A308C08CEF06C028
S1130FE0F70180839183A283B38380E00F900F90F5
S1130FF0DF91CF911F910F91FF90EF900895EF92A1
S1131000FF920F931F93CF93DF931F92CDB7DEB759
S11310108C017B01AE014F5F5F4F61E00E94702144
S1131020811113C09981F801E35EFE4F908397FF0D
S113103004C091E0F701908302C0F7011082F70128
S11310409081F801E75BFF4F90830F90DF91CF9180
S11310501F910F91FF90EF9008958F929F92AF92FE
S1131060BF92CF92DF92EF92FF920F931F93CF9391
S1131070DF938C01EB01FC01808988836A5F7F4FD9
S1131080C8010E941406811150C01A86BE01635F14
S11310907F4FC8010E946606811147C0BE016F5E82
S11310A07F4FC8010E94C80E81113FC06E01F1E25A
S11310B0CF0ED11C480185E2880E911C5E01E5E14A
S11310C0AE0EB11CE12CF12CA601B701C8010E949F
S11310D0820781112AC0F40181914F01F5018193A6
S11310E05F01FFEFEF1AFF0A84E0C80ED11CE6E0AF
S11310F0EE16F10449F7BE01675C7F4FC8010E94F8
S1131100FF07811112C0BE016E5F7F4FC801DF91DE
S1131110CF911F910F91FF90EF90DF90CF90BF90F0
S1131120AF909F908F900C94BB1CDF91CF911F9137
S11311300F91FF90EF90DF90CF90BF90AF909F9072
S11311408F900895EF92FF920F931F93CF93DF93A5
S1131150CDB7DEB7EC970FB6F894DEBF0FBECDBFA8
S11311608C0121E04EEF69E80E944321811105C002
S113117040E068E8C8010E942B21AE01455C5F4F46
S113118060ECC8010E947021F801E152FF4F108207
S113119088EE93E0E65AFF4F9183808380E991E0E3
S11311A032969183808385E89BE6A1E0B0E0329695
S11311B080839183A283B38384EA90E7A9E0B0E0BB
S11311C0E557F10980839183A283B383F801158ED7
S11311D0168E178E10A2BE016F5F7F4FC8010E944A
S11311E02D08F82E81110BC019821A828AE3FE01A0
S11311F03196D801509601900D928A95E1F784E6D4
S113120090E0F801EF5DFE4F9183808384E893E0E2
S113121032969183808384EF91E032969183808328
S113122080E09AE033969183808381E07096808396
S113123041E060E8C8010E942B21E82E41E06FEFF5
S1131240C8010E942B218E29F82A40E060E0C801E1
S11312500E942B21F82AAE01445C5F4F61E9C8016A
S11312600E947021F82A8CADF801E95DFE4F80835D
S113127041E060E0C8010E942B21F82A40E06FEFB2
S1131280C8010E942B21F82A40E060E8C8010E94AE
S11312902B218F29E12CF12C81115FC041E0B70192
S11312A0C8010E94A706FFEFEF1AFF0A96E0E916AD
S11312B0F10491F7811151C0F80117A210A640E082
S11312C064E070E0C8010E94A706811146C040E0B6
S11312D065E070E0C8010E94A70681113EC020E0CD
S11312E030E042E150E060E070E0C8010E941C0779
S11312F0811133C020E030E440E050E061E070E070
S1131300C8010E941C07811128C020E030E043E29C
S113131050E062E070E0C8010E941C0781111DC00A
S113132020E030E0A90163E070E0C8010E941C07DE
S1131330811113C08FEFF801E35EFE4F80834FEFFE
S113134061E0C8010E942B2191E0F801E15EFE4FAB
S11313509083811102C07B971082EC960FB6F894AB
S1131360DEBF0FBECDBFDF91CF911F910F91FF90D4
S1131370EF90089521E00C9410132F923F924F9216
S11313805F926F927F928F929F92AF92BF92CF9211
S1131390DF92EF92FF920F931F93CF93DF93CDB71A
S11313A0DEB7AA970FB6F894DEBF0FBECDBF4C01CF
S11313B05B010CE010E020E030E0AE01465E5F4FE0
S11313C064E10E9412218111FDC0D50156961C9240
S11313D05697F50110821182128213826CA170E07B
S11313E0762F66278DA1680F711D14961D921D928C
S11313F01D921C921797E9A1F0E0FE2FEE27FF0F34
S11314002F01612C712C1C964D925D926D927C92F1
S11314101F978BA190E0982F8827990F8C0120E0CB
S113142030E050960D931D932D933C9353970C8D60
S113143010E0102F00278D8D080F111D55961C9359
S11314400E9354973A8CD401A75CBE4F2D913C91D6
S113145011975B972C90283EB3E03B0709F43FC0FB
S1131460629FC001639F900D729F900D11248C5058
S11314709E4F68EE73E00E94BE22D4015D968D916A
S11314809D910D90BC91A02D8FA398A7A9A7BAA751
S1131490D4015A962C91222311F1089F6001099FCF
S11314A0D00C189FD00C1124CD2CDD24E12CF12C70
S11314B04C145D046E047F0429F4211013C060EE03
S11314C07AE820C09F01DB010E941923A301920145
S11314D02C193D094E095F090E94D222B90122202C
S11314E089F002C068EB72E2CB01969587959695D8
S11314F08795F501918780876295660F660F607CFA
S1131500678B07C0D50119967C936E9318975796ED
S11315101C92FE01B6966F017501A3019201632D21
S1131520C4010E94751F81114DC09EA1D50158961A
S11315309C93BAE48B0E911C29E1F401DE0111960F
S113154001900D922A95E1F7D5011896ED91FC9141
S1131550199757963C9057971A966D917C911B97C3
S11315601C964D905D906D907C901F975096CD90F9
S1131570DD90ED90FC90539754964D915C91559766
S113158014960D911D912D913C9117970D831E83F7
S11315902F833887FA87E9877C876B874D865E8639
S11315A06F86788AC98ADA8AEB8AFC8A5E8B4D8BCD
S11315B0388E998F99E1FE013196D40101900D92F4
S11315C09A95E1F7AA960FB6F894DEBF0FBECDBF89
S11315D0DF91CF911F910F91FF90EF90DF90CF900B
S11315E0BF90AF909F908F907F906F905F904F903F
S11315F03F902F900895CF92DF92EF92FF920F9336
S11316001F93CF93DF9300D0CDB7DEB78C016A016F
S11316107901AE014F5F5F4F6EE00E947C21F601BD
S1131620108211821282138281110CC0AE014F5FAD
S11316305F4F6CE0C8010E947C21F7011082118287
S1131640128213820F900F90DF91CF911F910F910F
S1131650FF90EF90DF90CF900895EF92FF921F9349
S1131660CF93DF93CDB7DEB728970FB6F894DEBFDC
S11316700FBECDBF7C01FC01E253FF4F908191501E
S1131680933008F040C0162F9E012F5F3F4FAE01EC
S11316904B5F5F4F61E0C7010E94FB0A4D815E8191
S11316A06F817885413051056F4F710548F4498148
S11316B05A816B817C81413051056F4F710520F156
S11316C0811122C0112331F062E071E0C7010E9450
S11316D0A21D1AC044E06FEFC7010E942B21182FEE
S11316E040E060E7C7010E942B21182B40E06FEF18
S11316F0C7010E942B21182B40E060E8C7010E941B
S11317002B21812B01C080E028960FB6F894DEBF10
S11317100FBECDBFDF91CF911F91FF90EF90089541
S1131720CF92DF92EF92FF920F931F93CF93DF93A9
S11317301F92CDB7DEB78C01FC01F08841E060E870
S11317400E942B2141E06FEFC8010E942B2140E051
S113175060E0C8010E942B21F801E95DFE4F408141
S113176061E9C8010E942B2141E060E0C8010E94A8
S11317702B2140E06FEFC8010E942B2140E060E87C
S1131780C8010E942B21F1E0FF1689F1FF1620F019
S113179093E0F916A1F146C041E060E0C8010E945F
S11317A02B2191E09983811140C0C12CD12C760169
S11317B0EFEFCE1ADE0AEE0AFE0A998190FF10C0FE
S11317C081110EC0F8ECCF16D104E104F10461F1EB
S11317D0AE014F5F5F4F60E0C8010E947021E8CF07
S11317E098ECC916D104E104F104F9F41DC0811187
S11317F004C061E0C8010E942D0B42E007C08111C2
S113180004C061E0C8010E942D0B44E060E0C801FF
S11318100E942B21811109C0F801E15EFE4F94E082
S1131820908303C088EF01C089EF0F90DF91CF91BF
S11318301F910F91FF90EF90DF90CF9008951F9329
S1131840CF93DF93EC011889112331F0CE010E946C
S11318507215882331F00BC00E94900B811107C0D0
S1131860F5CF111104C0C15EDE4F93E09883DF9180
S1131870CF911F910895EF92FF920F931F93CF93EF
S1131880DF931F92CDB7DEB77C0100E041E06BE04F
S1131890C7010E942B21182F40E06BE0C7010E9472
S11318A02B21182BAE014F5F5F4F63E1C7010E94EC
S11318B07021812B0F5F9981977029F0033029F0F3
S11318C0882321F303C0033009F484EF0F90DF91E0
S11318D0CF911F910F91FF90EF9008950F931F9355
S11318E0CF93DF93EC018B01188A0E941F0C8111A6
S11318F010C0B801CE010E94BD0981110AC040E0A8
S113190050E0BA01CE01DF91CF911F910F910C9459
S11319103B0CDF91CF911F910F910895EF92FF92AD
S11319200F93CF93611180C0443161F4002311F00F
S113193041E001C040E164E8CF910F91FF90EF9046
S11319400C942B21C22F7C01453109F05AC041E08F
S11319506FEF0E942B21C82F40E060E0C7010E9476
S11319602B21C82B40E06FEFC7010E942B21C82B0D
S113197041E060E8C7010E942B21C82B42E065E8E2
S1131980C7010E942B21C82B44E06FEFC7010E94BE
S11319902B21C82B40E06DECC7010E942B21C82BE2
S11319A041E16CECC7010E942B21C82B47E06FEF8B
S11319B0C7010E942B21C82B40E06EEBC7010E9497
S11319C02B21C82B46E06FEFC7010E942B21C82BA7
S11319D049E06CECC7010E942B21C82B40E06FEF5B
S11319E0C7010E942B21C82B41E06FEFC7010E9461
S11319F02B21C82B40E060E0C7010E942B218C2BD7
S1131A0037C0223069F030F4222381F0213079F597
S1131A1041E00DC0233031F0243049F544E007C0E3
S1131A2042E005C043E003C086EF22C040E06AE024
S1131A30C7010E942B2181111BC0002311F020E15A
S1131A4001C020E04FEE64E8C7010E9443218111E8
S1131A500FC0F701E253FF4FC08340E050E0BA01EA
S1131A60C701CF910F91FF90EF900C943B0C85EF41
S1131A70CF910F91FF90EF900895CF92DF92EF9264
S1131A80FF920F931F93CF93DF93CDB7DEB7C75465
S1131A90D1090FB6F894DEBF0FBECDBF7C01CE01D5
S1131AA001966C018AE3F60111928A95E9F725966D
S1131AB01FAE1EAE259728961FAE289727961FAEF9
S1131AC0279723961CAE1DAE1EAE1FAE239761E072
S1131AD0C7010E94D415F701ED5FFE4F208122302B
S1131AE090F43197408150E060E070E0213031F4AF
S1131AF0413251056105710530F40FC04D30510577
S1131B006105710550F0AE014A5B5F4FBE01615C37
S1131B107F4FC7010E94401303C0C7010E942211D6
S1131B208111CAC0F701E85CFE4F8081811104C0B5
S1131B3032976081718102C068EB72E0C7010E9434
S1131B40A21D8111B9C000E024E040E060E0C701BB
S1131B500E948E0C8111B0C041E06FEFC7010E945A
S1131B602B21182FAE014D5B5F4F64E8C7010E9423
S1131B707C21182B40E06FEFC7010E942B21812BA1
S1131B8009F09AC0F701E853FF4F25968EAD9FAD3B
S1131B90259724E0880F991F2A95E1F7A0E0B0E08B
S1131BA080839183A283B383B601C7010E942D0869
S1131BB0811182C0BE01695B7F4FC7010E94F80496
S1131BC081117AC028968FAD2897F701E25EFE4F07
S1131BD080838AE3F601D701509601900D928A958D
S1131BE0E1F7AE01495B5F4F61E0C7010E947021DC
S1131BF0811162C028968FAD2897F701E35EFE4FEE
S1131C00808340E060E0C7010E940B05811154C04D
S1131C1040E062E0C7010E940B0581114DC083E0E2
S1131C20F701E15EFE4F8083AE014B5B5F4F60E0E6
S1131C30C7010E94CA1B81113FC026968FAD26970B
S1131C40F701E852FF4F8083AE014B5B5F4F61E0C9
S1131C50C7010E94CA1B81112FC026968FAD2697FB
S1131C60F701ED52FF4F8083AE01455C5F4F63E0A7
S1131C70C7010E94A90581111FC08BAD9CADADADFC
S1131C80BEADF701EC52FF4F80839183A283B383EF
S1131C90AE01455C5F4F64E0C7010E94A905811154
S1131CA00BC0F701E153FF4F4BAD5CAD6DAD7EADA5
S1131CB04083518362837383C95BDF4F0FB6F8940B
S1131CC0DEBF0FBECDBFDF91CF911F910F91FF906B
S1131CD0EF90DF90CF9008950F931F93CF93DF93EE
S1131CE01F92CDB7DEB78B01AE014F5F5F4F63E14B
S1131CF00E9470219981492F477050E060E070E0A4
S1131D00F8014083518362837383987109F08AEFE9
S1131D100F90DF91CF911F910F9108950F931F930F
S1131D20CF93DF9300D000D0CDB7DEB78B01FC0199
S1131D30E253FF4F2081243079F4BE016F5F7F4F5F
S1131D400E946C0E49815A816B817C81443051051B
S1131D506105710581F40BC0AE014F5F5F4F64E113
S1131D600E947021811109C0998190FF04C091E003
S1131D70F801908302C0F80110820F900F900F9029
S1131D800F90DF91CF911F910F9108950C94401300
S1131D900F931F93CF93DF9300D0CDB7DEB78B01A2
S1131DA0AE014F5F5F4F68E20E947C21811117C032
S1131DB029813A813F70211598E0390708F03051A4
S1131DC09AEF929FA001939F500D1124052E000CB1
S1131DD0660B770BF80140835183628373830F9002
S1131DE00F90DF91CF911F910F9108953F924F92E1
S1131DF05F926F927F928F929F92AF92BF92CF9297
S1131E00DF92EF92FF920F931F93CF93DF93CDB79F
S1131E10DEB728970FB6F894DEBF0FBECDBF9E8302
S1131E208D83F886EF82CC24CA94DC2C7601AF81B2
S1131E30B885CD92DD92ED92FC9213972801390179
S1131E4093E076946794579447949A95D1F7D9017F
S1131E50C80187709927AA27BB2789839A83AB83F4
S1131E60BC835301420123E0880C991CAA1CBB1CAF
S1131E702A95D1F773016201312CC416D506E60602
S1131E80F70608F040C031103EC0ED81FE81EC0D34
S1131E90FD1D8081C414D504E604F70461F490E0C8
S1131EA0098002C0959587950A94E2F709811A8101
S1131EB02B813C8103C000E010E0980180FF0EC03C
S1131EC0080D191D2A1D3B1DAF81B8850D931D9367
S1131ED02D933C931397332433940AC086950F5F54
S1131EE01F4F2F4F3F4F083011052105310531F7A2
S1131EF0BFEFCB1ADB0AEB0AFB0AE8E08E0E911C5B
S1131F00A11CB11CBACF28960FB6F894DEBF0FBE41
S1131F10CDBFDF91CF911F910F91FF90EF90DF9094
S1131F20CF90BF90AF909F908F907F906F905F9075
S1131F304F903F900895DC01CB0126E0B695A7951C
S1131F40979587952A95D1F7BC01660F771F660F81
S1131F50771FFB01E555FC4F81E04081518162818F
S1131F607381452B462B472B09F480E00895CF92CB
S1131F70DF92EF92FF920F931F9368017901E3E0E0
S1131F80F694E794D794C794EA95D1F7077011278C
S1131F9022273327C416D506E606F70670F4FC019B
S1131FA0EC0DFD1D81E090E001C0880F0A95EAF771
S1131FB09081892B808380E001C08EEC1F910F916A
S1131FC0FF90EF90DF90CF9008950F931F93AB0194
S1131FD006E010E020E030E060EB0E94F9201F9161
S1131FE00F9108950F931F93AB0106E010E020E0DA
S1131FF030E060EB0E9412211F910F9108952F92FF
S11320003F924F925F926F927F929F92AF92BF9254
S1132010CF92DF92EF92FF920F931F93CF93DF93B0
S1132020CDB7DEB766970FB6F894DEBF0FBECDBF4F
S11320309C8B8B8B962E5E8B4D8B3901170128015F
S11320402AA53BA54CA55DA52F83388749875A87C8
S11320501F86188A198A1A8A8F859889A989BA8944
S11320602EA53FA548A959A982179307A407B50728
S113207009F447C0AE01495F5F4F7A010AA51BA569
S11320802CA53DA5B201A1018D899E890E94F60E61
S11320908F819885A985BA858B879C87AD87BE87F4
S11320A08F3F2FEF9207A207B20769F1BC01CD0160
S11320B06A0D7B1D8C1D9D1D0E949B0F891123C0E1
S11320C00B851C852D853E85B201A101C3010E94AB
S11320D0B70F8B859C85AD85BE850196A11DB11D6D
S11320E08AA79BA7ACA7BDA72F85388949895A8998
S11320F02F5F3F4F4F4F5F4F2F87388B498B5A8B42
S1132100ABCF80E001C08EECEAA9FBA92AA53BA5D0
S11321104CA55DA52083318342835383811123C061
S1132120B3018B899C890E94E50F81111CC0BE01FB
S11321306F5F7F4F8B899C890E94F20FD301FE0150
S1132140319640E050E0BA01421553056405750527
S113215051F02D919191291305C04F5F5F4F6F4F3F
S11321607F4FF2CF8EEC66960FB6F894DEBF0FBEAB
S1132170CDBFDF91CF911F910F91FF90EF90DF9032
S1132180CF90BF90AF909F907F906F905F904F9053
S11321903F902F900895AF92BF92DF92EF92FF92FB
S11321A00F931F93CF93DF93CDB7DEB769970FB625
S11321B0F894DEBF0FBECDBF8C015B017C0183EEC2
S11321C0E81A8EEFF80AF701D08040EC61E0C8010C
S11321D00E942B21811126C0BE016F5F7F4FC80171
S11321E00E946E0C81111EC041E06FEFC8010E9475
S11321F02B21811117C0A50166EBC8010E947C2127
S1132200811110C040E06FEFC8010E942B218111A1
S113221009C04D2D61E0C8010E942B21811102C02B
S1132220F701D08269960FB6F894DEBF0FBECDBF1A
S1132230DF91CF911F910F91FF90EF90DF90BF90AE
S1132240AF9008954F925F926F927F928F929F9278
S1132250AF92BF92CF92DF92EF92FF920F931F93B0
S1132260CF93DF9300D000D0CDB7DEB74C01642EFE
S1132270152F062FB72E722E41E06FEF0E942B21EF
S113228081111AC040E06FE4C4010E942B21811126
S113229013C04CE26EE4C4010E942B2181110CC0D6
S11322A040E06FEFC4010E942B21811105C044EB73
S11322B066EBC4010E942B2124012FEE421A2EEF5B
S11322C0520AF201108231961082319610823196B0
S11322D010823196108231961082C12CD12C760155
S11322E0772081F0C701B6016C547F4F8F4F9F4F09
S11322F00E949B0F811106C0FCE2CF16D104E104B9
S1132300F10479F5CE0101969F938F93BF920F93B9
S11323101F936F92FF92EF92DF92CF9284EBA82EDD
S1132320B12CC12CD12C16E0E12EF12C00E010E0F0
S11323309201A401495E5E4F672DC4010E94FF0F04
S11323400FB6F894DEBF0FBECDBF811110C0F401EB
S1132350EC5FFE4F91E090833297608231967082F9
S113236006C03FEFC31AD30AE30AF30ABBCF0F90A8
S11323700F900F900F90DF91CF911F910F91FF90CD
S1132380EF90DF90CF90BF90AF909F908F907F9011
S11323906F905F904F900895CF93DF93EC01462F99
S11323A0416060E00E942B21811114C0CE010E9483
S11323B0721581110FC040E050E0BA01CE010E94B5
S11323C03B0C811107C040E060E0CE01DF91CF916A
S11323D00C942B21DF91CF9108955F926F927F929D
S11323E08F929F92AF92BF92CF92DF92EF92FF9221
S11323F00F931F93CF93DF931F92CDB7DEB74C019A
S1132400562EB42ED22E3801198241E06FEF0E946D
S11324102B21182F40E060E0C4010E942B21182BCF
S113242040E06FEFC4010E942B21182B552091F03E
S1132430CC2031F0A3016BECC4010E947021182B55
S1132440AA20C9F0AE014F5F5F4F6EEEC4010E9437
S1132450702110C0CC2031F04B2D6BECC4010E94D4
S11324602B21182BAA2039F02D2D40E86EEEC40143
S11324700E944321182B41E06FEFC4010E942B21DD
S1132480182B41E060E0C4010E942B21182B40E08E
S11324906FEFC4010E942B2199819F7EF7019083E5
S11324A0812B0F90DF91CF911F910F91FF90EF90AF
S11324B0DF90CF90BF90AF909F908F907F906F9060
S11324C05F9008958F929F92AF92BF92CF92DF92C6
S11324D0EF92FF920F931F93CF93DF931F92CDB789
S11324E0DEB74C018B01F42EB22E1982222329F07F
S11324F0FC01E35EFE4FD08001C0D12C41E061E0DD
S1132500C4010E942B21811116C060E4C4010E9401
S1132510CC11811110C091E0F9120DC0A12CCC2472
S1132520C394FE0131967F0120E040E061E0C401E4
S11325300E94ED1102C0F801108281110DC0BB2070
S113254059F04D2D61E0C4010E942B21811104C07A
S1132550F401E35EFE4FD0820F90DF91CF911F9183
S11325600F91FF90EF90DF90CF90BF90AF909F902E
S11325708F9008958F929F92AF92BF92CF92DF92E5
S1132580EF92FF920F931F93CF93DF931F92CDB7D8
S1132590DEB74C017B01142FB22E222329F0FC015B
S11325A0E35EFE4FD08001C0D12C42E061E0C40163
S11325B00E942B21811115C060E0C4010E94CC113E
S11325C081110FC0113069F4AA24A394C12C8E0187
S11325D00F5F1F4F20E040E061E0C4010E94ED1155
S11325E002C0F701108281110DC0BB2059F04D2D9E
S11325F061E0C4010E942B21811104C0F401E35E57
S1132600FE4FD0820F90DF91CF911F910F91FF90D9
S1132610EF90DF90CF90BF90AF909F908F900895F0
S1132620CF92DF92EF92FF920F931F93CF93DF939A
S1132630EC016A01E22E8C01035E1E4FF801F0806A
S113264020E04E2D0E946212811111C020E04E2D17
S1132650B601CE010E94BA12811109C04F2D61E06A
S1132660CE010E942B21811102C0F801F082DF917A
S1132670CF911F910F91FF90EF90DF90CF9008952D
S11326802F923F924F925F926F927F928F929F927E
S1132690AF92BF92CF92DF92EF92FF920F931F936C
S11326A0CF93DF93CDB7DEB7A8970FB6F894DEBF0C
S11326B00FBECDBF4C017CA36BA35EA34DA31B86B1
S11326C01C861D861E861F82188619861A861A8AFB
S11326D0198AFC01E85DFE4F208131813C8B2B8BF4
S11326E01C013FEE231A3EEF330AD1011C922C0148
S11326F0BEEE4B1ABEEF5B0AF201108231961082D5
S113270031961082319610823196108241E06FEF3B
S11327100E942B218111CDC140E06FE4C4010E94CD
S11327202B218111C6C14CE26EE4C4010E942B210D
S11327308111BFC140E06FEFC4010E942B218111C0
S1132740B8C144EB66EBC4010E942B218111B1C1D5
S113275040E060E8C4010E942B218111AAC120E05D
S1132760AE014F5E5F4FBE016E5E7F4FC4010E949B
S1132770101381119EC11B861C861D861E86940122
S1132780295E3E4F3A8F298F3E013BE0630E711C58
S11327907F926F921F921F921F9283E08F931F92DA
S11327A01F921F921F9244EBA42EB12CC12CD12C4A
S11327B016E0E12EF12C00E010E09101498D5A8DD4
S11327C060E0C4010E94FF0F0FB6F894DEBF0FBE95
S11327D0CDBF81116EC1AB84BC84CD84DE84BE01C7
S11327E0615F7F4FC4010E94CB10811162C18F854C
S11327F09889AB89BC89A817B90708F05FC0F101B3
S11328001082D2011C923296108231961082319637
S1132810108231961082C601B5016C547F4F8F4FE0
S11328209F4F0E949B0F81110CC0BCE2AB16B104F8
S1132830C104D10430F4BFEFAB1ABB0ACB0ADB0AE4
S1132840EACF7F926F921F921F921F9283E08F9321
S1132850DF92CF92BF92AF9284EBA82EB12CC12C01
S1132860D12C16E0E12EF12C00E010E09101498D0D
S11328705A8D61E0C4010E94FF0F0FB6F894DEBFC9
S11328800FBECDBF811115C1AB84BC84CD84DE8461
S1132890BE01615F7F4FC4010E94CB10811109C149
S11328A08F859889EB89FC89E817F90780F421E082
S11328B033E0432E512C612C712C0DC020E0412CAF
S11328C0512C32011D8A1E8A1F8A188E0CC020E0EA
S11328D0412C512C320181E090E0A0E0B0E08D8BDE
S11328E09E8BAF8BB88F8F859889AB89BC898A17EB
S11328F09B0708F0C4C026E0F101DE0111960190A7
S11329000D922A95E1F7AB89BC898A1B9B0B97FF33
S113291003C09195819591099C01990F440B550B26
S11329202F8F38A349A35AA383E090E0A0E0B0E03E
S11329308B8F9C8FAD8FBE8FD401AF5EBE4FB8A777
S1132940AFA3FE0137967F019601850146E050E072
S113295060E070E0898D9A8D0E94F60ECF80D88455
S1132960E984FA84FFEFCF16DF06EF06FF0609F4C9
S11329709FC04B8C5C8C6D8C7E8C2FEF421A520A5C
S1132980620A720AC701B6016C547F4F8F4F9F4F82
S11329900E949B0F90E0A0E0B0E02D893E894F8912
S11329A0588D82179307A407B50709F081C09701D2
S11329B0860146E050E060E070E0C1010E94B70F7C
S11329C0811177C0560167013FEFA31AB30AC30A06
S11329D0D30AB101C4010E94E50F81116AC0BE018E
S11329E0615F7F4FC4010E94CB10811162C08F854B
S11329F09889AC01AB89BC894A1B5B0B57FF03C0A8
S1132A00519541955109052E000C660B770BEB8906
S1132A10FC89E817F90700F58F8D98A1A9A1BAA13F
S1132A2084179507A607B70748F5BE016F5F7F4F68
S1132A30C4010E94E50F96E0FE013196D401AF5E19
S1132A40BE4F01900D929A95E1F7811132C04B8CE3
S1132A505C8C6D8C7E8C12C086E0EFA1F8A5DE0143
S1132A60119601900D928A95E1F74B8E5C8E6D8ED6
S1132A707E8E4F8F58A369A37AA363CF2D89ABA110
S1132A80BCA14D925D926D927C921397EDA1FEA133
S1132A902083F401EC5FFE4F81E0808332978C91B8
S1132AA08083ADA1BEA18C913196808380E001C06A
S1132AB08EECA8960FB6F894DEBF0FBECDBFDF91A3
S1132AC0CF911F910F91FF90EF90DF90CF90BF9027
S1132AD0AF909F908F907F906F905F904F903F90BA
S1132AE02F900895EF92FF920F931F93CF93DF934C
S1132AF01F92CDB7DEB77C01198200E010E0BE0161
S1132B006F5F7F4FC7010E948E0E81110DC09981A6
S1132B10913051F00F5F1F4F083C110521F0C701A0
S1132B200E949421ECCF89EF0F90DF91CF911F91F8
S1132B300F91FF90EF900895CF92DF92EF92FF9262
S1132B401F93CF93DF931F92CDB7DEB77C0140E094
S1132B5063E80E942B21182F811117C0C12CD12C9E
S1132B60AE014F5F5F4F63E8C7010E947021182FC9
S1132B70898181110AC0111108C08FEFC81AD80ABF
S1132B8088ECC816D10461F719EF41E063E8C70186
S1132B900E942B21812B0F90DF91CF911F91FF90E9
S1132BA0EF90DF90CF9008952F923F924F925F92D3
S1132BB06F927F928F929F92AF92BF92CF92DF9249
S1132BC0EF92FF920F931F93CF93DF93CDB7DEB7AE
S1132BD0AC970FB6F894DEBF0FBECDBF1E8E1F8E0E
S1132BE018A219A21A8E1B8E1C8E1D8E9C012152B6
S1132BF03F4F3BA72AA7F901D080F7E0DF1609F47D
S1132C00C2C2E62E8C0141E060E80E942B21F82E1E
S1132C1041E06FEFC8010E942B21F82A40E060E0F8
S1132C20C8010E942B21F82A46E06FEFC8010E94D8
S1132C302B21F82AAE01485D5F4F63E8C8010E946A
S1132C407021F82A48A5446063E8C8010E942B213A
S1132C50F82A47E06FEFC8010E942B21F82A41E0CF
S1132C6061E8C8010E942B21F82AC8010E9494211E
S1132C70F82A41E060E8C8010E942B21F82A2E2D91
S1132C802170222EE0FE57C0D0FC55C04BE664E90B
S1132C90C8010E942B21C82EC8010E949C158C29B2
S1132CA0F82AAE014E5D5F4F60E9C8010E94882199
S1132CB0F82A8AA19BA1ACA1BDA1392F3F77332E5D
S1132CC04FE0B695A795979587954A95D1F7E82F44
S1132CD0E170CE2E44E264E9C8010E942B21F82A57
S1132CE0C8010E949C15F82AAE014E5D5F4F60E951
S1132CF0C8010E948821F82A8AA19BA12CA13DA188
S1132D003C8B2D8B9E8B8F8B45E264E9C8010E941E
S1132D102B21F82AC8010E949C15F82AAE014E5DA9
S1132D205F4F60E9C8010E948821F82A8CA19DA107
S1132D30988F898F02C0C12C312CFE2DF270F9A717
S1132D40E1FE42C1D1FC40C142E064E9C8010E94F5
S1132D502B21B82EC8010E949C158B29F82AAE019C
S1132D60495D5F4F60E9C8010E947021F82A4BE772
S1132D7064E9C8010E942B21F82AC8010E949C150D
S1132D80F82AAE014A5D5F4F60E9C8010E947021D4
S1132D90F82A47E764E9C8010E942B21F82AC801F0
S1132DA00E949C15F82AAE014E5D5F4F60E9C80190
S1132DB00E948821F82A8AA19BA1ACA1BDA1AC01E3
S1132DC0BD01E9E17695679557954795EA95D1F761
S1132DD04983AC01BD01F2E1769567955795479516
S1132DE0FA95D1F74F774A83AC01BD012BE0769574
S1132DF06795579547952A95D1F74F774B83AC0143
S1132E00BD0134E076956795579547953A95D1F786
S1132E104F774C838F70880F880F880F88A748E7F7
S1132E2064E9C8010E942B21F82AC8010E949C155C
S1132E30F82AAE014E5D5F4F60E9C8010E94882107
S1132E40F82A8AA19BA1ACA1BDA1AC01BD01EDE111
S1132E507695679557954795EA95D1F728A5420F3A
S1132E604D83AC01BD01F6E176956795579547957D
S1132E70FA95D1F74F774E83AC01BD012FE07695DB
S1132E806795579547952A95D1F74F774F83292F03
S1132E902F772887AC01BD0176956795579547959F
S1132EA04F77498781708295880F880F807C88A727
S1132EB049E764E9C8010E942B21F82AC8010E944D
S1132EC09C15F82AAE014E5D5F4F60E9C8010E946F
S1132ED08821F82A8AA19BA1ACA1BDA1AC01BD01A6
S1132EE0EAE17695679557954795EA95D1F728A530
S1132EF0420F4A87AC01BD01F3E17695679557957A
S1132F004795FA95D1F74F774B87AC01BD012CE07B
S1132F1076956795579547952A95D1F74F774C87BE
S1132F20AC01BD0135E076956795579547953A957F
S1132F30D1F74F774D878F71880F880F88A74AE79D
S1132F4064E9C8010E942B21F82AC8010E949C153B
S1132F50F82AAE014E5D5F4F60E9C8010E948821E6
S1132F60F82A8AA19BA1ACA1BDA1AC01BD01EEE1EF
S1132F707695679557954795EA95D1F728A5420F19
S1132F804E87AC01BD01F7E1769567955795479556
S1132F90FA95D1F74F774F872A2F2F77288BAC01DB
S1132FA0BD0129E076956795579547952A95D1F700
S1132FB04F77498B32E0B695A795979587953A95C3
S1132FC0D1F78F778A8B1B8A2E2D24702CA7E2FED3
S1132FD09EC0D2FC9CC04BE764E9C8010E942B212F
S1132FE0B82EC8010E949C158B29F82AAE01425EB6
S1132FF05F4F60E9C8010E948821F82A4CE764E920
S1133000C8010E942B21F82AC8010E949C15F82AA5
S1133010AE01465E5F4F60E9C8010E948821F82A2C
S113302043E764E9C8010E942B21F82AC8010E94E1
S11330309C15F82AAE014E5D5F4F60E9C8010E94FD
S11330408821F82A8AA09BA0ACA0BDA0BA2CA92CE8
S1133050982C8824240135016624772444E764E904
S1133060C8010E942B21F82AC8010E949C15F82A45
S1133070AE014E5D5F4F60E9C8010E948821F82AC5
S11330808AA09BA0ACA0BDA08B2C9924AA24BB240D
S113309084289528A628B72845E764E9C8010E9432
S11330A02B21F82AC8010E949C15F82AAE014E5D16
S11330B05F4F60E9C8010E948821F82A4AA05BA0FA
S11330C06CA07DA0762C652C542C44246624772493
S11330D046E764E9C8010E942B21F82AC8010E942E
S11330E09C15F82AAE014E5D5F4F60E9C8010E944D
S11330F08821F82A8AA19BA1ACA1BDA18B2F992775
S1133100AA27BB27482A592A6A2A7B2A06C0812C67
S1133110912C5401412C512C320140E061E8C8014A
S11331200E942B21F82A46E06FEFC8010E942B2150
S1133130F82AAE01485D5F4F63E8C8010E94702120
S1133140F82A48A54B7F63E8C8010E942B21F82A7E
S113315041E06FEFC8010E942B21F82A41E060E0B2
S1133160C8010E942B21F82A40E06FEFC8010E9499
S11331702B21F82A40E060E8C8010E942B21F82A9C
S113318009F07FC002C0F12C7CC0222011F0D0FED7
S113319004C039A5311113C024C0F801EE5FFE4FFD
S11331A030823196C082DE0154967496C801835EE3
S11331B09E4F2D9121938E179F07D9F7EACFD1FC0B
S11331C010C08FA1F801E052FF4F80838EA1319689
S11331D08083BE016F5F7F4FC8018E519F4F0E9455
S11331E033238CA5882309F448C0D2FC46C08E8DB5
S11331F09F8DA8A1B9A1F801EB5FFE4F8083918355
S1133200A283B3838A8D9B8DAC8DBD8D34968083D0
S11332109183A283B383349639E0880C991CAA1C49
S1133220BB1C3A95D1F780829182A282B382411469
S1133230510461047104B1F0A301920139514109AF
S11332405109A8EEB3E00E942823DC01CB0124E05D
S1133250B695A795979587952A95D1F791958195D8
S1133260910902C080E090E0092E000CAA0BBB0B70
S1133270F80184879587A687B787ED28EAA5FBA57B
S1133280E0828F2DAC960FB6F894DEBF0FBECDBF93
S1133290DF91CF911F910F91FF90EF90DF90CF902E
S11332A0BF90AF909F908F907F906F905F904F9062
S11332B03F902F900895CF92DF92EF92FF92611585
S11332C0710581059105D1F0DC01CB010197A109BC
S11332D0B10920E030E06C017D01CC24CD28CE285A
S11332E0CF2839F0B695A795979587952F5F3F4FCF
S11332F0F2CF322F2227820F931F02C080E090E08A
S1133300FF90EF90DF90CF9008958F929F92AF92AD
S1133310BF92CF92DF92EF92FF924A015B01A22FFC
S1133320B0E020E03FE24AE350E00E9428236B0132
S11333307C0124EFC20E21E0D21EE11CF11CA8EE98
S1133340B3E0A50194010E9428234B015C01C7014D
S1133350B60120ED37E040E050E00E94D222820E18
S1133360931EA41EB51EC701B60128EE33E040E04B
S113337050E00E94D222C501B4010E94D222CA01A7
S1133380B901FF90EF90DF90CF90BF90AF909F90E6
S11333908F9008954F925F926F927F928F929F9237
S11333A0AF92BF92CF92DF92EF92FF923B01A42F94
S11333B0B0E020E03FE24AE350E00E9428236B01A2
S11333C07C0124EFC20E21E0D21EE11CF11C88EE28
S11333D0882E83E0982EA12CB12CC701B601A5013B
S11333E094010E94D222D3010E9428232B013C0184
S11333F0C701B60120ED37E040E050E00E94D22240
S1133400C301B201620F731F841F951FA5019401AC
S11334100E94D222CA01B901FF90EF90DF90CF90B1
S1133420BF90AF909F908F907F906F905F904F90E0
S11334300895AF92BF92CF92DF92EF92FF921F93C3
S1133440CF93DF93CDB7DEB72B970FB6F894DEBFDB
S11334500FBECDBF7C015A011A86198618866330C7
S1133460B8F4AE01455F5F4F60E00E940905182F74
S1133470811108C0AE01465F5F4F66E4C7010E9438
S11334807021182F6A85862F90E0A0E0B0E02BC051
S1133490633081F5AE01455F5F4F60E00E9409052E
S11334A0182F811189C0AE01455F5F4F60E0C701ED
S11334B00E940905182F811108C0AE01485F5F4FB3
S11334C061E5C7010E947C21182F28853985B9013F
S11334D07727CB01A0E0B0E004C0880F991FAA1F92
S11334E0BB1F3A95D2F7BC01CD016F5F7F4F8F4F61
S11334F09F4F5DC0643009F063C0BE016F5F7F4FB2
S11335000E947C058C81882331F1AE01455F5F4FB9
S113351060E0C7010E940905182F811141C0AE0166
S1133520485F5F4F61E5C7010E947C21182F288501
S11335303985C9019927A0E0B0E004C0880F991F1C
S1133540AA1FBB1F3A95D2F70196A11DB11D6C01AC
S1133550111128C002C0C12CD12CAE01455F5F4FB0
S113356061E0C7010E940905182F81111BC0AE013B
S11335704A5F5F4F61E7C7010E947C21182F2E81AB
S11335803F81C9019927A0E0B0E004C0880F991FCA
S1133590AA1FBB1F3A95D2F70196A11DB11D04C005
S11335A0C12CD12C80E090E0BC016C197D094B85C5
S11335B0C7010E94CA1908C060E070E0CB0104C0D2
S11335C060E070E0CB0110E0F501608371838283D9
S11335D09383812F2B960FB6F894DEBF0FBECDBF19
S11335E0DF91CF911F91FF90EF90DF90CF90BF902C
S11335F0AF9008958F929F92AF92BF92CF92DF9235
S1133600FF920F931F93CF93DF93CDB7DEB7289725
S11336100FB6F894DEBF0FBECDBF8C0149015A012D
S1133620633010F5AE01485F5F4F60E00E9409050A
S1133630F82E81119CC02885B501A401C8010E94FF
S113364085194FEF613021E0720708F4460FF80145
S1133650E453FF4F842F90E09183808366E4C80194
S11336600E942B21F82E83C0633031F5AE01485FF0
S11336705F4F60E00E940905F82E2885B501A4017A
S1133680C8010E948519882799270E945B199F8386
S11336908E83F801E453FF4F91838083F11067C058
S11336A0AC0161E5C8010E943721F82E81115FC089
S11336B0F801EC52FF4F54C0643009F056C0BE010B
S11336C06F5F7F4F0E947C058C81882331F1AE01AE
S11336D0485F5F4F60E0C8010E940905F82E811120
S11336E046C0AE014A5F5F4F61E5C8010E947C217C
S11336F0F82E81113CC02E813F81C9019927A0E099
S1133700B0E004C0880F991FAA1FBB1F3A95D2F7D7
S11337100196A11DB11D6C0102C0C12CD12CAE01BA
S1133720485F5F4F61E0C8010E940905F82E8111CE
S11337301EC02885B501A401C8010E9485196C0D1D
S11337407D1D80E090E00E945B19AC0161E7C80137
S11337500E943721F82E81110AC0F801E153FF4F6E
S113376080829182A282B38202C08CEFF82E8F2DC8
S113377028960FB6F894DEBF0FBECDBFDF91CF9170
S11337801F910F91FF90DF90CF90BF90AF909F90CB
S11337908F9008950F931F93CF93DF931F92CDB70C
S11337A0DEB78A01662339F0613099F4AE014F5FC8
S11337B05F4F60E704C0AE014F5F5F4F60E50E945A
S11337C07021811107C099819F5F990FF80190833F
S11337D001C08CEF0F90DF91CF911F910F9108954D
S11337E08F929F92AF92BF92CF92DF92EF92FF920D
S11337F00F931F93CF93DF93CDB7DEB72D970FB6FB
S1133800F894DEBF0FBECDBF00ED17E020E030E03E
S11338100A871B872C873D871E821F82188619867C
S113382040322EE452076105710508F490C04A0144
S11338305B018C01BE016F5F7F4F0E947C0581118B
S113384087C07501640188EEC81A88E0D80AE108C7
S1133850F1088981811107C08A81811104C08B819B
S1133860882309F442C0AE01465F5F4F62E0C8019D
S11338700E94191A81116CC08981882391F08A856C
S11338809B85AC85BD85825B9D4FAF4FBF4F8C152B
S11338909D05AE05BF0508F05AC0C81AD90AEA0A40
S11338A0FB0A8B81882369F08A859B85AC85BD855D
S11338B08E549D4FAF4FBF4F880F991FAA1FBB1F38
S11338C00BC08A81882389F08A859B85AC85BD8558
S11338D08C569D4FAF4FBF4F8C159D05AE05BF0550
S11338E0B0F5C81AD90AEA0AFB0A8C818823D1F0F8
S11338F0AE014A5F5F4F63E0C8010E94191A4E810E
S11339005F81688579854C565D4F6F4F7F4F4C15AD
S11339105D056E057F05D8F481111AC0C41AD50A55
S1133920E60AF70A8D81882381F0A70196012652C1
S113393032404109510964E0C8010E94FA1AF801B1
S1133940828A938AA48AB58A03C080E001C08CEF7E
S11339502D960FB6F894DEBF0FBECDBFDF91CF9189
S11339601F910F91FF90EF90DF90CF90BF90AF9099
S11339709F908F9008958F929F92AF92BF92DF9203
S1133980EF92FF920F931F93CF93DF93CDB7DEB7E0
S113399061970FB6F894DEBF0FBECDBF7C018B01DB
S11339A080ED97E0A0E0B0E08A879B87AC87BD8775
S11339B01E821F821886198686E39BE0A0E0B0E091
S11339C0FB0180839183A283B383BE016F5F7F4F2A
S11339D0C7010E947C05D82E8111A1C08981811163
S11339E007C08A81811104C08B81882309F449C0EE
S11339F0AE01465F5F4F62E0C7010E94191A811150
S1133A008DC089818823A9F08A859B85AC85BD8575
S1133A10825B9D4FAF4FBF4FF8014081518162815E
S1133A207381840F951FA61FB71F80839183A28380
S1133A30B3838B81882369F08A859B85AC85BD859A
S1133A408E549D4FAF4FBF4F880F991FAA1FBB1FA6
S1133A500BC08A818823A9F08A859B85AC85BD85A6
S1133A608C569D4FAF4FBF4FF80140815181628109
S1133A707381840F951FA61FB71F80839183A28330
S1133A80B3838C818823F1F0AE014A5F5F4F63E01A
S1133A90C7010E94191A4E815F81688579854C5649
S1133AA05D4F6F4F7F4FF80180809180A280B3807B
S1133AB0480D591D6A1D7B1D4083518362837383A6
S1133AC081112CC08D8181110BC0F80180819181FD
S1133AD0A281B381F701828B938BA48BB58B1FC01A
S1133AE0AE01425F5F4F64E0C7010E94191A4E8520
S1133AF05F85688979894A5D5D4F6F4F7F4FF80113
S1133B0080809180A280B380480D591D6A1D7B1D61
S1133B1040835183628373838823B9F2D82E8D2D19
S1133B2061960FB6F894DEBF0FBECDBFDF91CF9183
S1133B301F910F91FF90EF90DF90BF90AF909F90F7
S1133B408F9008952F923F924F925F926F927F923F
S1133B508F929F92AF92BF92CF92DF92EF92FF9299
S1133B600F931F93CF93DF9300D000D000D0CDB735
S1133B70DEB75C016B0120E030E080E0AE014F5F16
S1133B805F4F4A01F501ED5DFE4FFE83ED831501A4
S1133B90FFED2F1AFEEF3F0A25014BED441A4EEFBD
S1133BA0540A350158ED651A5EEF750AF601E20F05
S1133BB0F31F0081002309F486C0811184C07901B8
S1133BC09FEFE91AF90A0F3F09F059C0D601AE0D6B
S1133BD0BF1D9C91790142E0E40EF11C9130C9F0C3
S1133BE038F0923041F19330B9F18CEF9701DECF88
S1133BF0D601AE0DBF1D9C91790154E0E50EF11C78
S1133C004381292F30E0322F2227240F311DF10167
S1133C1033C0D601AE0DBF1D9C91790144E0E40E82
S1133C20F11C4381292F30E0322F2227240F311D2C
S1133C30ED81FE8121C0D601AE0DBF1D9C9179019D
S1133C4044E0E40EF11C4381292F30E0322F222777
S1133C50240F311DF20110C0D601AE0DBF1D9C9181
S1133C60790144E0E40EF11C4381292F30E0322F26
S1133C702227240F311DF30131832083B7CF053070
S1133C8008F0B3CFF601EE0DFF1D60817901F2E07B
S1133C90EF0EF11CD601AE0DBF1DF401802F90E094
S1133CA09F0128193909281739071CF42D912193EC
S1133CB0F7CFE80EF91E10E020E030E0A401C501C2
S1133CC00E94F92093CF26960FB6F894DEBF0FBE5C
S1133CD0CDBFDF91CF911F910F91FF90EF90DF90B7
S1133CE0CF90BF90AF909F908F907F906F905F9098
S1133CF04F903F902F900895BF92CF92DF92EF9212
S1133D00FF920F931F93CF93DF931F92CDB7DEB72C
S1133D107C016B018A01DA011D921D921D921C9295
S1133D201397BE016F5F7F4F0E946006B82E81110A
S1133D301FC089818823E1F0F60184899589D70120
S1133D405D962D913D914D915C919097DC010E947F
S1133D502823DC01CB0180589F4FAF4FBF4F892FE1
S1133D609A2FAB2FBB27F80180839183A283B3835F
S1133D708B2D0F90DF91CF911F910F91FF90EF90BA
S1133D80DF90CF90BF900895CF92DF92EF92FF9291
S1133D900F931F93CF93DF9300D000D0CDB7DEB73E
S1133DA08A01FB01C484D584E684F784FA01C082C5
S1133DB0D182E282F382AE014F5F5F4F0E947C1E8C
S1133DC0811111C0F801C080D180E280F380498163
S1133DD05A816B817C814C0D5D1D6E1D7F1D40835E
S1133DE05183628373830F900F900F900F90DF9134
S1133DF0CF911F910F91FF90EF90DF90CF90089596
S1133E00AF92BF92CF92DF92EF92FF920F931F93E4
S1133E10CF93DF93CDB7DEB728970FB6F894DEBF04
S1133E200FBECDBF8C015B016A017901FC01858D58
S1133E30968DA78DB0A18D839E83AF83B887AE0185
S1133E404F5F5F4FC8010E94C41EAE014B5F5F4FBE
S1133E50B501C8010E947C1EB82E811134C029818D
S1133E603A814B815C81A8EEB3E00E942823DC01F7
S1133E70CB019058AF4FBF4FCD01AA27BB27065D9A
S1133E801E4F892B8A2B8B2B79F48EEA97E8AFE8A7
S1133E90B2E0F60180839183A283B383F801808327
S1133EA09183A283B3830AC0F60110821182128225
S1133EB01382F8011082118212821382F701108298
S1133EC01182128213828B2D28960FB6F894DEBFCE
S1133ED00FBECDBFDF91CF911F910F91FF90EF9057
S1133EE0DF90CF90BF90AF9008952F923F924F9262
S1133EF05F926F927F928F929F92AF92BF92CF9276
S1133F00DF92EF92FF920F931F93CF93DF93CDB77E
S1133F10DEB7A5970FB6F894DEBF0FBECDBF5C0128
S1133F2029A33AA34BA35CA348011A8E198E188EB9
S1133F301F8A1E8A1D8A19821A821B821C82687734
S1133F40262E312C93E0359427949A95E1F72B8E05
S1133F50222061F0822D8D7F11E01C8F853041F08D
S1133F6084EF820D843020F01C8E02C001E00C8F9F
S1133F7041E06FEFC5010E942B21811107C0AE0102
S1133F804B5E5F4F66EBC5010E947C219D8920E05A
S1133F9030E0392F330F2901612C712C811105C0B8
S1133FA040E06FEFC5010E942B21F501EE5CFE4F4E
S1133FB04082518262827382811108C0AE01465EE2
S1133FC05F4F60E070E0C5010E940D079A8D992350
S1133FD079F18111F3C09E012F5F3F4FAE014F5E17
S1133FE05F4FB701C5010E94001F8111E7C089819D
S1133FF09A81F70193878287AE01435F5F4F60E048
S113400070E0C5010E9482074D855E856F857889C1
S1134010411551056105710559F001E00DA30989A8
S11340201A892B893C89401751076207730708F0E6
S11340301DA2811108C0AE01485E5F4F62E070E0CE
S1134040C5010E940D07988D9923C9F0811123C0E1
S1134050AE01475F5F4F62E070E0C5010E948207D6
S113406049855A856B857C85411551056105710526
S113407031F011E0441555056605770508F010E0A8
S113408081110AC0AE01495E5F4F63E070E0C50173
S11340900E940D0701C010E09F89992381F18111CD
S11340A05CC08114910481F029A13AA14BA15CA1C7
S11340B0942F832F722F6627940140E050E00E94D2
S11340C0D22229013A0103C0412C512C3201AE0104
S11340D04B5F5F4F63E070E0C5010E9482074D8132
S11340E05E816F817885411551056105710539F04F
S11340F099249394441655066606770608F0912C85
S113410081112CC00C8D8FEF0130D9F0820D8330DA
S113411010F485E016C00B8D063011F0093011F44F
S113412084E00FC0622D6D7F683011F0113011F4FE
S113413083E007C00B8D043019F021E0921204C013
S113414082E0F60180830AC00DA1013021F481E0F0
S1134150F601808302C0F6011082912CF601808161
S1134160811103C0F70113861286AE01475E5F4FCB
S113417061E070E0C5010E940D07811121C09A8D94
S1134180911102C001E00DA30DA1F50103A70B8D50
S113419091E0043019F0298D211190E0F50194A7E4
S11341A0988D911101C011E0F50115A79F89911116
S11341B002C099249394F50196A602C01DA243CF90
S11341C0A5960FB6F894DEBF0FBECDBFDF91CF9199
S11341D01F910F91FF90EF90DF90CF90BF90AF9021
S11341E09F908F907F906F905F904F903F902F9013
S11341F008950F931F93CF930034110521053105C2
S113420010F0CCEF01C0C0E0FC01EF5BFE4F8081F9
S11342100E94BC21892B09F0CCEE8C2FCF911F91E9
S11342200F9108950F931F93CF9300341105210527
S1134230310510F0CCEF01C0C0E0FC01EF5BFE4F94
S113424080810E94EE21892B09F0CCEE8C2FCF9136
S11342501F910F9108958F5B9E4FFC0180810E94F6
S11342602822892B11F08CEE089580E008958F5B4D
S11342709E4FFC0180810E943F22892B11F08CEE1D
S1134280089580E00895EF92FF920F931F93CF93C8
S1134290DF931F92CDB7DEB7F62EE42E122F8F5B7D
S11342A09E4FFC010081AE014F5F5F4F802F0E9443
S11342B05822892B11F08CEE0BC049814E21412BE1
S11342C049836F2D802F0E942822892BA1F780E03B
S11342D00F90DF91CF911F910F91FF90EF90089570
S11342E08F5B9E4FFC0180810E945822892B11F024
S11342F08CEE089580E008958F5B9E4FFC018081D1
S11343000E946322892B11F08CEE089580E00895B9
S11343108F5B9E4FFC0180810E948722892B11F0C4
S11343208CEE089580E00895CF93DF9300D000D001
S1134330CDB7DEB719821A821B821C8289819A81C9
S1134340AB81BC818A3F9105A105B10568F40000E9
S113435089819A81AB81BC810196A11DB11D89839C
S11343609A83AB83BC83EACF80E00F900F900F90C9
S11343700F90DF91CF910895AF92BF92CF92DF92C9
S1134380EF92FF920F931F93CF93DF93F62EEA01E0
S11343905901880F0E9489008F2D0E94AB0068018B
S11343A07501C114D104E104F10449F089910E941A
S11343B0AB0081E0C81AD108E108F108F2CF0E94ED
S11343C0C60080E090E0DF91CF911F910F91FF90A4
S11343D0EF90DF90CF90BF90AF900895AF92BF92CF
S11343E0CF92DF92EF92FF920F931F93CF93DF93BD
S11343F0F82EE62EEA015901880F0E9489008E2DBD
S11344000E94AB000E94C6008F2D880F81600E941D
S1134410890068017501C114D104E104F10449F073
S11344200E94BC00899381E0C81AD108E108F10810
S1134430F2CF0E94C60080E090E0DF91CF911F91FF
S11344400F91FF90EF90DF90CF90BF90AF900895C1
S11344500F931F93CF93DF931F92CDB7DEB749839A
S113446001E010E020E030E0AE014F5F5F4F0E94BA
S1134470BC210F90DF91CF911F910F9108950F935D
S11344801F93CF93DF9300D0CDB7DEB74A83598310
S113449002E010E020E030E0AE014F5F5F4F0E9489
S11344A0BC210F900F90DF91CF911F910F91089530
S11344B00F931F9301E010E020E030E00E94EE2112
S11344C01F910F910895EF92FF920F931F93CF9333
S11344D0DF9300D0CDB7DEB77A0102E010E020E030
S11344E030E0AE014F5F5F4F0E94EE2129813A8197
S11344F0322723273227F701318320830F900F902F
S1134500DF91CF911F910F91FF90EF900895EF925B
S1134510FF920F931F93CF93DF9300D000D0CDB7BA
S1134520DEB77A0104E010E020E030E0AE014F5F36
S11345305F4F0E94EE2149815A8154274527542711
S113454060E070E0762F652F542F44272B81422B97
S1134550762F652F542F44272C81422BF70140835B
S11345605183628373830F900F900F900F90DF91AC
S1134570CF911F910F91FF90EF900895AA1BBB1B41
S113458051E107C0AA1FBB1FA617B70710F0A61B4F
S1134590B70B881F991F5A95A9F780959095BC0170
S11345A0CD010895A1E21A2EAA1BBB1BFD010DC06B
S11345B0AA1FBB1FEE1FFF1FA217B307E407F507CF
S11345C020F0A21BB30BE40BF50B661F771F881FAB
S11345D0991F1A9469F760957095809590959B0141
S11345E0AC01BD01CF010895052E97FB1EF4009484
S11345F00E940B2357FD07D00E94D22207FC03D050
S11346004EF40C940B2350954095309521953F4FD3
S11346104F4F5F4F089590958095709561957F4FAA
S11346208F4F9F4F0895EE0FFF1F0590F491E02DDB
S11346300994A29FB001B39FC001A39F700D811D77
S11346401124911DB29F700D811D1124911D089597
S11346500E941923A59F900DB49F900DA49F800DD7
S1134660911D11240895FB01DC0101900D9200209D
S1134670E1F70895A0E0B0E0E0E4F3E20C9437261B
S1134680AE014B5F5F4FFA0161917191AF0180916F
S1134690B7069091B8060E948023E2E00C9453265A
S11346A00F931F93CF93DF93E091B706F091B80671
S11346B0238121FF1BC08C01D0E0C0E0F80181916F
S11346C08F016091B7067091B806DB011896ED91E1
S11346D0FC911997882331F00995892B79F3DFEF41
S11346E0CFEFECCF8AE00995892B19F08FEF9FEF7C
S11346F002C08D2F9C2FDF91CF911F910F910895B0
S1134700ABE0B0E0E6E8F3E20C9427266C017B0111
S11347108A01FC0117821682838181FFCCC1CE01FC
S113472001963C01F6019381F70193FD859193FF76
S113473081917F01882309F4BAC1853239F493FD4C
S1134740859193FF81917F01853229F4B60190E030
S11347500E947725E7CF912C212C312CFFE1F31512
S1134760D8F08B3279F038F4803279F08332A1F4C6
S1134770232D20611DC08D3261F0803369F4232D17
S1134780216016C0832D8260382EE32DE4603E2E16
S11347902AC0F32DF8601DC037FC2DC020ED280F72
S11347A02A3040F08E32B9F436FC81C1232D2064C6
S11347B0322E19C036FE06C08AE0989E200D1124C0
S11347C0922E11C0EAE02E9E200D1124222EF32DEC
S11347D0F0623F2E08C08C3621F4832D8068382E79
S11347E002C0883641F4F70193FD859193FF8191CE
S11347F07F018111B3CF982F9F7D9554933028F476
S11348000C5F1F4F9FE399830DC0833631F08337CC
S113481071F0833509F059C021C0F8018081898382
S11348200E5F1F4F88248394912C530113C02801D9
S1134830F2E04F0E511CF801A080B18036FE03C097
S1134840692D70E002C06FEF7FEFC5010E946C25F7
S11348504C018201F32DFF773F2E16C0280122E080
S1134860420E511CF801A080B18036FE03C0692DB0
S113487070E002C06FEF7FEFC5010E9461254C011B
S1134880F32DF0683F2E820133FC1BC0822D90E093
S113489088169906B0F4B60180E290E00E9477256C
S11348A02A94F4CFF50137FC859137FE81915F019D
S11348B0B60190E00E94772521102A9421E0821A03
S11348C091088114910471F7E8C0843611F0893697
S11348D041F5F80137FE07C06081718182819381BF
S11348E00C5F1F4F08C060817181072E000C880B7C
S11348F0990B0E5F1F4FF32DFF763F2E97FF09C0D4
S113490090958095709561957F4F8F4F9F4FF0687C
S11349103F2E2AE030E0A3010E94B325882E86189A
S113492045C0853731F4232D2F7EB22E2AE030E0A6
S113493025C0932D997FB92E8F36C1F018F4883590
S113494079F0B5C0803719F0883721F0B0C0E92F6D
S1134950E061BE2EB4FE0DC0FB2DF460BF2E09C075
S113496034FE0AC0292F2660B22E06C028E030E0AB
S113497005C020E130E002C020E132E0F801B7FEDA
S113498007C060817181828193810C5F1F4F06C0D3
S11349906081718180E090E00E5F1F4FA3010E944F
S11349A0B325882E8618FB2DFF773F2E36FE0DC0CB
S11349B0232D2E7FA22E891458F434FE0BC032FC12
S11349C009C0832D8E7EA82E05C0B82CA32C03C04D
S11349D0B82C01C0B92CA4FE0FC0FE01E80DF11DD6
S11349E08081803321F49A2D997EA92E09C0A2FEDC
S11349F006C0B394B39404C08A2D867809F0B394A6
S1134A00A3FC11C0A0FE06C0B21488F4280C922C9A
S1134A109B180EC0B21460F4B60180E290E00E94CC
S1134A207725B394F7CFB21418F42B1802C0982C3E
S1134A30212CA4FE10C0B60180E390E00E947725EB
S1134A40A2FE17C0A1FC03C088E790E002C088E57D
S1134A5090E0B6010CC08A2D867859F0A1FE02C000
S1134A608BE201C080E2A7FC8DE2B60190E00E94D7
S1134A707725891438F4B60180E390E00E94772505
S1134A809A94F7CF8A94F301E80DF11D8081B60161
S1134A9090E00E9477258110F5CF222009F442CEC0
S1134AA0B60180E290E00E9477252A94F6CFF601C1
S1134AB08681978102C08FEF9FEF2B96E2E10C94E1
S1134AC04326FC010590615070400110D8F7809591
S1134AD090958E0F9F1F0895FC01615070400190C6
S1134AE00110D8F7809590958E0F9F1F08950F930E
S1134AF01F93CF93DF93FB01238121FD03C08FEF2D
S1134B009FEF2CC022FF16C0468157812481358136
S1134B104217530744F4A081B1819D012F5F3F4F99
S1134B20318320838C93268137812F5F3F4F3783D6
S1134B30268314C08B01EC01FB010084F185E02D78
S1134B400995892BE1F6D80116968D919C911797BA
S1134B50019617969C938E931697CE01DF91CF9171
S1134B601F910F910895FA01AA27283051F120319D
S1134B7081F1E8946F936E7F6E5F7F4F8F4F9F4FED
S1134B80AF4FB1E03ED0B4E03CD0670F781F891F2F
S1134B909A1FA11D680F791F8A1F911DA11D6A0FFD
S1134BA0711D811D911DA11D20D009F468943F91B0
S1134BB02AE0269F11243019305D3193DEF6CF01AF
S1134BC00895462F4770405D4193B3E00FD0C9F775
S1134BD0F6CF462F4F70405D4A3318F0495D31FDE2
S1134BE04052419302D0A9F7EACFB4E0A695979535
S1134BF0879577956795BA95C9F70097610571050B
S1134C0008959B01AC010A2E069457954795379554
S1134C102795BA95C9F7620F731F841F951FA01DAE
S1134C200895A8E1B0E042E050E00C941926DC01BC
S1134C30CB01FC01F999FECF06C0F2BDE1BDF89AA3
S1134C40319600B40D9241505040B8F708952F9218
S1134C503F924F925F926F927F928F929F92AF9208
S1134C60BF92CF92DF92EF92FF920F931F93CF9355
S1134C70DF93CDB7DEB7CA1BDB0B0FB6F894DEBFEC
S1134C800FBECDBF09942A88398848885F846E8412
S1134C907D848C849B84AA84B984C884DF80EE805C
S1134CA0FD800C811B81AA81B981CE0FD11D0FB665
S1134CB0F894DEBF0FBECDBFED010895F894FFCF89
S1134CC0FFFF01FF0001800101FF0101000001FF5E
S1134CD001014F0201FF0E01000301018401020AD8
S1134CE00103030104080105C801060301078D013E
S1134CF008080109C6010A01010B02010C00010D9B
S1134D00D5010E18010F12011001011182011200C8
S1134D100113D50114180115130116030117860197
S1134D20180A011909011A08011BC2011C03011DFB
S1134D308F011E0A011F0601200101210201220028
S1134D400123D5012418012522012601012782010E
S1134D5028000129D5012A18012B0B012C28012D2B
S1134D6078012E28012F9101300001310B0132000E
S1134D7001330B0134000135A10136000137A001D4
S1134D803800013904013A28013B30013C0C013D53
S1134D9004013E0F013F7901402801411E01422FC9
S1134DA001438701440001450B01460001470B0103
S1134DB048000149A7014A00014BA6014C00014DDE
S1134DC004014E01014F00015000015180015209BC
S1134DD001530801540101550001560F015779018F
S1134DE05809015905015A00015B60015C05015D28
S1134DF0D1015E0C015F3C0160000161D001620BD6
S1134E0001630301642801651001662A0167390101
S1134E10680B016902016A28016B10016C2A016D9B
S1134E2061016E0C016F0001700F01717901720054
S1134E3001730B01740001750B0176000177A10168
S1134E4078000179A0017A00017B0401FF04017953
S1134E501D017B2701960E0197FE0198030199EF2E
S1134E60019A02019B4401730701700101FF0101D2
S1134E70000101FF0000000001FF0101000001FF2B
S1134E80000109000110000111000124010125FFA6
S1134E9001750001FF01014E2C0148000130200181
S1134EA0FF000130090154000131040132030140C3
S1134EB083014625016000012700015006015100CD
S1134EC00152960156080157300161000162000148
S1134ED064000165000166A001FF0101223201475F
S1134EE0140149FF014A0001FF00017A0A017B0015
S1134EF001782101FF010123340142000144FF0133
S1134F004526014605014040010E0601201A0143D1
S1134F104001FF0001340301354401FF0101310464
S1134F20014B09014C05014D0401FF00014400013E
S1134F3045200147080148280167000170040171F8
S1134F40010172FE01760001770001FF01010D01EC
S1134F5001FF000180010101F801FF01018E01013F
S1134F60000101FF000180000000000A00000005AC
S1134F70000000000000000500000069643A2020E1
S1134F8020202030782533780D0A006C656E677414
S1134F90683A2025640D0A007274723A2020202099
S1134FA025640D0A00646174613A2020003078257C
S1134FB030327820000D004572726F72207772696A
S1134FC074696E67206D65737361676520746F2003
S1134FD063616E20627573210D0A00476F7420436C
S1134FE0414E206164647265737320696E20454587
S1134FF050524F4D3A20307825303478210D0A0034
S11350004261642043414E2061646472657373207D
S1135010696E20454550524F4D2C2064656661757C
S11350206C74696E6720746F2030782530346C7826
S1135030210D0A0043616E277420636F6D6D756ED8
S113504069636174652077697468204D4350323513
S11350503135210D0A004D43503235313520697305
S1135060206163746976650D0A0043616E277420BC
S1135070636F6E6E65637420746F20564C35334CC9
S11350803058210044697374616E636520286D6D26
S1135090293A2025752C2072616E6765207374612E
S10D50A07475733A25640D0A0000CC
S9030000FC
