:100000000C945A000C9477000C9477000C947700B1
:100010000C9477000C9477000C9477000C94770084
:100020000C9477000C9477000C9477000C94770074
:100030000C9477000C9477000C9477000C94770064
:100040000C9477000C9477000C9477000C94770054
:100050000C9477000C9477000C9477000C94770044
:100060000C9477000C9477000C9477000C94770034
:100070000C9477000C9477000C9477000C94770024
:100080000C9477000C9477000C9477000C94770014
:100090000C9477000C9477000C9477000C94770004
:1000A0000C9477000C9477000C9477000C947700F4
:1000B0000C94770011241FBECFEFD8E0DEBFCDBF78
:1000C00011E0A0E0B1E0EAEAF2E002C005900D9292
:1000D000A430B107D9F721E0A4E0B1E001C01D923E
:1000E000A631B207E1F70E94A7000C9453010C94CB
:1000F000000001979C0140E050E060E271EA87E077
:1001000090E00E94DD00832F99278093C500209303
:10011000C400E1ECF0E0808188698083E2ECF0E0EB
:1001200080818E60808308959091C00095FFFCCF00
:100130008093C6000895CF93DF93EC0189918823C3
:1001400019F00E949400FACFDF91CF910895559A4B
:10015000569A579A80E895E20E94790080E280934F
:10016000B8004AE066E071E08091040190910501D9
:100170000E941E0186E091E00E949B0080E091E0D9
:100180000E949B005D9A8FE19EE40197F1F700C009
:1001900000005D989FE72BE288E19150204080406D
:1001A000E1F700C0000080910401909105010196E3
:1001B0009093050180930401D4CF052E97FB1EF484
:1001C00000940E94F40057FD07D00E94FC0007FC39
:1001D00003D04EF40C94F400509540953095219541
:1001E0003F4F4F4F5F4F0895909580957095619563
:1001F0007F4F8F4F9F4F0895A1E21A2EAA1BBB1B62
:10020000FD010DC0AA1FBB1FEE1FFF1FA217B307E2
:10021000E407F50720F0A21BB30BE40BF50B661FF8
:10022000771F881F991F1A9469F7609570958095BC
:1002300090959B01AC01BD01CF010895BB274A30C9
:1002400031F4992322F4BDE2909581959F4F0C944F
:100250002A01BB27FB015527AA27880F991FAA1F30
:10026000A41710F0A41B83955051B9F7A05DAA33D1
:1002700008F0A95DA193009779F7B111B19311929C
:10028000CB010C944301DC01FC01672F71917723B2
:10029000E1F7329704C07C916D9370836291AE1741
:0A02A000BF07C8F30895F894FFCFDC
:0402AA000D0A000039
:00000001FF
